{
  "contractName": "ShiinoContract",
  "abi": [
    {
      "inputs": [],
      "stateMutability": "nonpayable",
      "type": "constructor"
    },
    {
      "inputs": [
        {
          "internalType": "uint256",
          "name": "requested",
          "type": "uint256"
        },
        {
          "internalType": "uint256",
          "name": "available",
          "type": "uint256"
        }
      ],
      "name": "InsufficientBalance",
      "type": "error"
    },
    {
      "anonymous": false,
      "inputs": [
        {
          "indexed": false,
          "internalType": "address",
          "name": "from",
          "type": "address"
        },
        {
          "indexed": false,
          "internalType": "address",
          "name": "to",
          "type": "address"
        },
        {
          "indexed": false,
          "internalType": "uint256",
          "name": "amount",
          "type": "uint256"
        }
      ],
      "name": "Sent",
      "type": "event"
    },
    {
      "inputs": [
        {
          "internalType": "address",
          "name": "",
          "type": "address"
        }
      ],
      "name": "balances",
      "outputs": [
        {
          "internalType": "uint256",
          "name": "",
          "type": "uint256"
        }
      ],
      "stateMutability": "view",
      "type": "function"
    },
    {
      "inputs": [],
      "name": "minter",
      "outputs": [
        {
          "internalType": "address",
          "name": "",
          "type": "address"
        }
      ],
      "stateMutability": "view",
      "type": "function"
    },
    {
      "inputs": [
        {
          "internalType": "address",
          "name": "receiver",
          "type": "address"
        },
        {
          "internalType": "uint256",
          "name": "amount",
          "type": "uint256"
        }
      ],
      "name": "mint",
      "outputs": [],
      "stateMutability": "nonpayable",
      "type": "function"
    },
    {
      "inputs": [
        {
          "internalType": "address",
          "name": "receiver",
          "type": "address"
        },
        {
          "internalType": "uint256",
          "name": "amount",
          "type": "uint256"
        }
      ],
      "name": "Send",
      "outputs": [],
      "stateMutability": "nonpayable",
      "type": "function"
    }
  ],
  "bytecode": "0x608060405234801561001057600080fd5b50336000806101000a81548173ffffffffffffffffffffffffffffffffffffffff021916908373ffffffffffffffffffffffffffffffffffffffff160217905550610611806100606000396000f3fe608060405234801561001057600080fd5b506004361061004c5760003560e01c8063075461721461005157806327e235e31461006f57806330a3c5071461009f57806340c10f19146100bb575b600080fd5b6100596100d7565b6040516100669190610422565b60405180910390f35b6100896004803603810190610084919061039f565b6100fb565b6040516100969190610474565b60405180910390f35b6100b960048036038101906100b491906103c8565b610113565b005b6100d560048036038101906100d091906103c8565b6102c3565b005b60008054906101000a900473ffffffffffffffffffffffffffffffffffffffff1681565b60016020528060005260406000206000915090505481565b600160003373ffffffffffffffffffffffffffffffffffffffff1673ffffffffffffffffffffffffffffffffffffffff168152602001908152602001600020548111156101d85780600160003373ffffffffffffffffffffffffffffffffffffffff1673ffffffffffffffffffffffffffffffffffffffff168152602001908152602001600020546040517fcf4791810000000000000000000000000000000000000000000000000000000081526004016101cf92919061048f565b60405180910390fd5b80600160003373ffffffffffffffffffffffffffffffffffffffff1673ffffffffffffffffffffffffffffffffffffffff1681526020019081526020016000206000828254610227919061050e565b9250508190555080600160008473ffffffffffffffffffffffffffffffffffffffff1673ffffffffffffffffffffffffffffffffffffffff168152602001908152602001600020600082825461027d91906104b8565b925050819055507f3990db2d31862302a685e8086b5755072a6e2b5b780af1ee81ece35ee3cd33453383836040516102b79392919061043d565b60405180910390a15050565b60008054906101000a900473ffffffffffffffffffffffffffffffffffffffff1673ffffffffffffffffffffffffffffffffffffffff163373ffffffffffffffffffffffffffffffffffffffff161461031b57600080fd5b80600160008473ffffffffffffffffffffffffffffffffffffffff1673ffffffffffffffffffffffffffffffffffffffff168152602001908152602001600020600082825461036a91906104b8565b925050819055505050565b600081359050610384816105ad565b92915050565b600081359050610399816105c4565b92915050565b6000602082840312156103b157600080fd5b60006103bf84828501610375565b91505092915050565b600080604083850312156103db57600080fd5b60006103e985828601610375565b92505060206103fa8582860161038a565b9150509250929050565b61040d81610542565b82525050565b61041c81610574565b82525050565b60006020820190506104376000830184610404565b92915050565b60006060820190506104526000830186610404565b61045f6020830185610404565b61046c6040830184610413565b949350505050565b60006020820190506104896000830184610413565b92915050565b60006040820190506104a46000830185610413565b6104b16020830184610413565b9392505050565b60006104c382610574565b91506104ce83610574565b9250827fffffffffffffffffffffffffffffffffffffffffffffffffffffffffffffffff038211156105035761050261057e565b5b828201905092915050565b600061051982610574565b915061052483610574565b9250828210156105375761053661057e565b5b828203905092915050565b600061054d82610554565b9050919050565b600073ffffffffffffffffffffffffffffffffffffffff82169050919050565b6000819050919050565b7f4e487b7100000000000000000000000000000000000000000000000000000000600052601160045260246000fd5b6105b681610542565b81146105c157600080fd5b50565b6105cd81610574565b81146105d857600080fd5b5056fea26469706673582212204e43c04a66c6598d8e151d81955ca9202c7eed62ecb5bcb931da3e59388aca0264736f6c63430008040033",
  "immutableReferences": {},
  "source": "// SPDX-License-Identifier: GPL-3.0\npragma solidity ^0.8.4;\n\nerror InsufficientBalance(uint requested, uint available);\n\ncontract ShiinoContract {\n  \t// set Address\n  \taddress public minter;\n  \tmapping (address => uint) public balances;\n\n  \t// Event Sent\n  \tevent Sent(address from, address to, uint amount);\n\n  \t// Constructor\n  \tconstructor(){\n    \tminter = msg.sender;\n  \t}\n\n  \t// function mint\n  \tfunction mint(address receiver, uint amount) public {\n    \trequire(msg.sender == minter);\n    \tbalances[receiver] += amount;\n  \t}\n\n\t// fucntion Send\n\tfunction Send(address receiver, uint amount) public {\n\t\tif(amount > balances[msg.sender])\n\t\t\trevert InsufficientBalance({\n\t\t\t\trequested: amount,\n\t\t\t\tavailable: balances[msg.sender]\n\t\t\t});\n\n\t\tbalances[msg.sender] -= amount;\n\t\tbalances[receiver] += amount;\n\t\temit Sent(msg.sender, receiver, amount);\n\t}\n}",
  "sourcePath": "E:\\Workspace\\shino-coin\\contracts\\ShiinoContract.sol",
  "compiler": {
    "name": "solc",
    "version": "0.8.4+commit.c7e474f2.Emscripten.clang"
  },
  "schemaVersion": "3.4.3",
  "updatedAt": "2021-10-14T10:56:15.956Z",
  "devdoc": {
    "kind": "dev",
    "methods": {},
    "version": 1
  },
  "userdoc": {
    "kind": "user",
    "methods": {},
    "version": 1
  }
}